{
  "contractName": "Loan",
  "abi": [
    {
      "inputs": [],
      "stateMutability": "nonpayable",
      "type": "constructor"
    },
    {
      "anonymous": false,
      "inputs": [
        {
          "indexed": false,
          "internalType": "address",
          "name": "garantor",
          "type": "address"
        },
        {
          "indexed": false,
          "internalType": "uint256",
          "name": "garantorInterest",
          "type": "uint256"
        }
      ],
      "name": "FoundGarantor",
      "type": "event"
    },
    {
      "anonymous": false,
      "inputs": [
        {
          "indexed": false,
          "internalType": "address",
          "name": "garantor",
          "type": "address"
        },
        {
          "indexed": false,
          "internalType": "uint256",
          "name": "amount",
          "type": "uint256"
        }
      ],
      "name": "GarantorRefund",
      "type": "event"
    },
    {
      "anonymous": false,
      "inputs": [
        {
          "indexed": false,
          "internalType": "address",
          "name": "garantor",
          "type": "address"
        },
        {
          "indexed": false,
          "internalType": "uint256",
          "name": "amount",
          "type": "uint256"
        }
      ],
      "name": "GarantyClaimed",
      "type": "event"
    },
    {
      "anonymous": false,
      "inputs": [
        {
          "indexed": false,
          "internalType": "address",
          "name": "lender",
          "type": "address"
        },
        {
          "indexed": false,
          "internalType": "uint256",
          "name": "amount",
          "type": "uint256"
        }
      ],
      "name": "LoanFunded",
      "type": "event"
    },
    {
      "anonymous": false,
      "inputs": [
        {
          "indexed": false,
          "internalType": "address",
          "name": "borrower",
          "type": "address"
        },
        {
          "indexed": false,
          "internalType": "uint256",
          "name": "amount",
          "type": "uint256"
        }
      ],
      "name": "LoanRepay",
      "type": "event"
    },
    {
      "anonymous": false,
      "inputs": [
        {
          "indexed": false,
          "internalType": "address",
          "name": "borrower",
          "type": "address"
        },
        {
          "indexed": false,
          "internalType": "uint256",
          "name": "amount",
          "type": "uint256"
        },
        {
          "indexed": false,
          "internalType": "uint256",
          "name": "end",
          "type": "uint256"
        },
        {
          "indexed": false,
          "internalType": "uint256",
          "name": "interest",
          "type": "uint256"
        }
      ],
      "name": "LoanRequest",
      "type": "event"
    },
    {
      "anonymous": false,
      "inputs": [
        {
          "indexed": false,
          "internalType": "address",
          "name": "garantor",
          "type": "address"
        },
        {
          "indexed": false,
          "internalType": "uint256",
          "name": "amount",
          "type": "uint256"
        }
      ],
      "name": "ValidateGarantor",
      "type": "event"
    },
    {
      "inputs": [
        {
          "internalType": "uint256",
          "name": "_amount",
          "type": "uint256"
        },
        {
          "internalType": "uint256",
          "name": "_end",
          "type": "uint256"
        },
        {
          "internalType": "uint256",
          "name": "_interest",
          "type": "uint256"
        }
      ],
      "name": "requestLoan",
      "outputs": [],
      "stateMutability": "nonpayable",
      "type": "function"
    },
    {
      "inputs": [
        {
          "internalType": "uint256",
          "name": "_garantyinterest",
          "type": "uint256"
        },
        {
          "internalType": "address",
          "name": "_borrower",
          "type": "address"
        }
      ],
      "name": "provideGaranty",
      "outputs": [],
      "stateMutability": "payable",
      "type": "function",
      "payable": true
    },
    {
      "inputs": [
        {
          "internalType": "address",
          "name": "_borrower",
          "type": "address"
        }
      ],
      "name": "getGarantor",
      "outputs": [
        {
          "internalType": "address",
          "name": "",
          "type": "address"
        },
        {
          "internalType": "uint256",
          "name": "",
          "type": "uint256"
        }
      ],
      "stateMutability": "view",
      "type": "function",
      "constant": true
    },
    {
      "inputs": [
        {
          "internalType": "address",
          "name": "_garantor",
          "type": "address"
        },
        {
          "internalType": "bool",
          "name": "accept",
          "type": "bool"
        }
      ],
      "name": "validateGaranty",
      "outputs": [],
      "stateMutability": "nonpayable",
      "type": "function"
    },
    {
      "inputs": [
        {
          "internalType": "address",
          "name": "_borrower",
          "type": "address"
        }
      ],
      "name": "fundLoan",
      "outputs": [],
      "stateMutability": "payable",
      "type": "function",
      "payable": true
    },
    {
      "inputs": [
        {
          "internalType": "address",
          "name": "_borrower",
          "type": "address"
        }
      ],
      "name": "repayLoan",
      "outputs": [],
      "stateMutability": "payable",
      "type": "function",
      "payable": true
    },
    {
      "inputs": [
        {
          "internalType": "address",
          "name": "_borrower",
          "type": "address"
        }
      ],
      "name": "claimGaranty",
      "outputs": [],
      "stateMutability": "payable",
      "type": "function",
      "payable": true
    },
    {
      "inputs": [],
      "name": "viewLoans",
      "outputs": [
        {
          "components": [
            {
              "internalType": "address",
              "name": "borrower",
              "type": "address"
            },
            {
              "internalType": "uint256",
              "name": "amount",
              "type": "uint256"
            },
            {
              "internalType": "uint256",
              "name": "end",
              "type": "uint256"
            },
            {
              "internalType": "uint256",
              "name": "start",
              "type": "uint256"
            },
            {
              "internalType": "uint256",
              "name": "interest",
              "type": "uint256"
            },
            {
              "internalType": "address",
              "name": "garantor",
              "type": "address"
            },
            {
              "internalType": "uint256",
              "name": "garantorInterest",
              "type": "uint256"
            },
            {
              "internalType": "address",
              "name": "lender",
              "type": "address"
            },
            {
              "internalType": "bool",
              "name": "repaid",
              "type": "bool"
            }
          ],
          "internalType": "struct Loan.LoanStruct[]",
          "name": "",
          "type": "tuple[]"
        }
      ],
      "stateMutability": "view",
      "type": "function",
      "constant": true
    }
  ],
  "bytecode": "0x608060405234801561001057600080fd5b5033600260006101000a81548173ffffffffffffffffffffffffffffffffffffffff021916908373ffffffffffffffffffffffffffffffffffffffff1602179055506131c3806100616000396000f3fe60806040526004361061007b5760003560e01c8063882baa7c1161004e578063882baa7c1461011f578063db1430e01461014a578063e48f6faf14610166578063edadbbfe146101825761007b565b8063190ef1e61461008057806333e8404c1461009c5780636e6460b6146100c557806370aef47814610103575b600080fd5b61009a60048036038101906100959190612236565b6101ab565b005b3480156100a857600080fd5b506100c360048036038101906100be919061229b565b6107b0565b005b3480156100d157600080fd5b506100ec60048036038101906100e79190612236565b610c17565b6040516100fa929190612303565b60405180910390f35b61011d60048036038101906101189190612358565b610e21565b005b34801561012b57600080fd5b5061013461120c565b604051610141919061252c565b60405180910390f35b610164600480360381019061015f9190612236565b611430565b005b610180600480360381019061017b9190612236565b611807565b005b34801561018e57600080fd5b506101a960048036038101906101a4919061254e565b611d15565b005b6000806000905060005b600080549050811015610255578373ffffffffffffffffffffffffffffffffffffffff16600082815481106101ed576101ec6125a1565b5b906000526020600020906008020160000160009054906101000a900473ffffffffffffffffffffffffffffffffffffffff1673ffffffffffffffffffffffffffffffffffffffff160361024257600191508092505b808061024d906125ff565b9150506101b5565b50600115158115151461029d576040517f08c379a0000000000000000000000000000000000000000000000000000000008152600401610294906126a4565b60405180910390fd5b60008083815481106102b2576102b16125a1565b5b906000526020600020906008020160060154600084815481106102d8576102d76125a1565b5b906000526020600020906008020160040154600085815481106102fe576102fd6125a1565b5b90600052602060002090600802016001015461031a91906126c4565b61032491906126c4565b9050803414610368576040517f08c379a000000000000000000000000000000000000000000000000000000000815260040161035f90612790565b60405180910390fd5b60001515600084815481106103805761037f6125a1565b5b906000526020600020906008020160070160149054906101000a900460ff161515146103e1576040517f08c379a00000000000000000000000000000000000000000000000000000000081526004016103d8906127fc565b60405180910390fd5b600083815481106103f5576103f46125a1565b5b9060005260206000209060080201600201544210610448576040517f08c379a000000000000000000000000000000000000000000000000000000000815260040161043f9061288e565b60405180910390fd5b6000838154811061045c5761045b6125a1565b5b906000526020600020906008020160000160009054906101000a900473ffffffffffffffffffffffffffffffffffffffff1673ffffffffffffffffffffffffffffffffffffffff163373ffffffffffffffffffffffffffffffffffffffff16146104fb576040517f08c379a00000000000000000000000000000000000000000000000000000000081526004016104f290612920565b60405180910390fd5b600160008481548110610511576105106125a1565b5b906000526020600020906008020160070160146101000a81548160ff0219169083151502179055506000838154811061054d5761054c6125a1565b5b906000526020600020906008020160070160009054906101000a900473ffffffffffffffffffffffffffffffffffffffff1673ffffffffffffffffffffffffffffffffffffffff166108fc600085815481106105ac576105ab6125a1565b5b9060005260206000209060080201600101549081150290604051600060405180830381858888f193505050501580156105e9573d6000803e3d6000fd5b50600083815481106105fe576105fd6125a1565b5b906000526020600020906008020160050160009054906101000a900473ffffffffffffffffffffffffffffffffffffffff1673ffffffffffffffffffffffffffffffffffffffff166108fc6000858154811061065d5761065c6125a1565b5b9060005260206000209060080201600601549081150290604051600060405180830381858888f1935050505015801561069a573d6000803e3d6000fd5b50600083815481106106af576106ae6125a1565b5b906000526020600020906008020160050160009054906101000a900473ffffffffffffffffffffffffffffffffffffffff1673ffffffffffffffffffffffffffffffffffffffff166108fc6000858154811061070e5761070d6125a1565b5b9060005260206000209060080201600101549081150290604051600060405180830381858888f1935050505015801561074b573d6000803e3d6000fd5b507f13d5bfbbf47db8d35d82451c05792a5a66e9d06380d7ceddca34257a0e90cc9c3360008581548110610782576107816125a1565b5b9060005260206000209060080201600101546040516107a2929190612303565b60405180910390a150505050565b600033905060008080600090505b60008054905081101561085e578373ffffffffffffffffffffffffffffffffffffffff16600082815481106107f6576107f56125a1565b5b906000526020600020906008020160000160009054906101000a900473ffffffffffffffffffffffffffffffffffffffff1673ffffffffffffffffffffffffffffffffffffffff160361084b57600192508091505b8080610856906125ff565b9150506107be565b5060011515821515146108a6576040517f08c379a000000000000000000000000000000000000000000000000000000000815260040161089d906129b2565b60405180910390fd5b8473ffffffffffffffffffffffffffffffffffffffff16600160008573ffffffffffffffffffffffffffffffffffffffff1673ffffffffffffffffffffffffffffffffffffffff16815260200190815260200160002060000160009054906101000a905050506001151584151503610a4b57600160008473ffffffffffffffffffffffffffffffffffffffff1673ffffffffffffffffffffffffffffffffffffffff168152602001908152602001600020600101546000828154811061096f5761096e6125a1565b5b9060005260206000209060080201600601819055508460008281548110610999576109986125a1565b5b906000526020600020906008020160050160006101000a81548173ffffffffffffffffffffffffffffffffffffffff021916908373ffffffffffffffffffffffffffffffffffffffff1602179055507f4c07979a890ada9c12d07043b270ce67fb599616ddf5d9bd82e75759649bcc4c8560008381548110610a1e57610a1d6125a1565b5b906000526020600020906008020160060154604051610a3e929190612303565b60405180910390a1610c10565b8473ffffffffffffffffffffffffffffffffffffffff166108fc600160008673ffffffffffffffffffffffffffffffffffffffff1673ffffffffffffffffffffffffffffffffffffffff168152602001908152602001600020600101549081150290604051600060405180830381858888f19350505050158015610ad3573d6000803e3d6000fd5b507f566f61e3f74233815d06087c82fd27debe9757348e81216c6eb146924c35e7fa85600160008673ffffffffffffffffffffffffffffffffffffffff1673ffffffffffffffffffffffffffffffffffffffff16815260200190815260200160002060010154604051610b47929190612303565b60405180910390a16040518060400160405280600073ffffffffffffffffffffffffffffffffffffffff1681526020016000815250600160008573ffffffffffffffffffffffffffffffffffffffff1673ffffffffffffffffffffffffffffffffffffffff16815260200190815260200160002060008201518160000160006101000a81548173ffffffffffffffffffffffffffffffffffffffff021916908373ffffffffffffffffffffffffffffffffffffffff160217905550602082015181600101559050505b5050505050565b6000808273ffffffffffffffffffffffffffffffffffffffff163373ffffffffffffffffffffffffffffffffffffffff1614610c88576040517f08c379a0000000000000000000000000000000000000000000000000000000008152600401610c7f90612a1e565b60405180910390fd5b6000805b600080549050811015610d29578473ffffffffffffffffffffffffffffffffffffffff1660008281548110610cc457610cc36125a1565b5b906000526020600020906008020160000160009054906101000a900473ffffffffffffffffffffffffffffffffffffffff1673ffffffffffffffffffffffffffffffffffffffff1603610d1657600191505b8080610d21906125ff565b915050610c8c565b506001151581151514610d71576040517f08c379a0000000000000000000000000000000000000000000000000000000008152600401610d68906126a4565b60405180910390fd5b600160008573ffffffffffffffffffffffffffffffffffffffff1673ffffffffffffffffffffffffffffffffffffffff16815260200190815260200160002060000160009054906101000a900473ffffffffffffffffffffffffffffffffffffffff16600160008673ffffffffffffffffffffffffffffffffffffffff1673ffffffffffffffffffffffffffffffffffffffff168152602001908152602001600020600101549250925050915091565b8073ffffffffffffffffffffffffffffffffffffffff163373ffffffffffffffffffffffffffffffffffffffff1603610e8f576040517f08c379a0000000000000000000000000000000000000000000000000000000008152600401610e8690612ab0565b60405180910390fd5b60008080600090505b600080549050811015610f38578373ffffffffffffffffffffffffffffffffffffffff1660008281548110610ed057610ecf6125a1565b5b906000526020600020906008020160000160009054906101000a900473ffffffffffffffffffffffffffffffffffffffff1673ffffffffffffffffffffffffffffffffffffffff1603610f2557600192508091505b8080610f30906125ff565b915050610e98565b506001151582151514610f80576040517f08c379a0000000000000000000000000000000000000000000000000000000008152600401610f77906126a4565b60405180910390fd5b600073ffffffffffffffffffffffffffffffffffffffff16600160008573ffffffffffffffffffffffffffffffffffffffff1673ffffffffffffffffffffffffffffffffffffffff16815260200190815260200160002060000160009054906101000a900473ffffffffffffffffffffffffffffffffffffffff1673ffffffffffffffffffffffffffffffffffffffff161461101f5761101e612ad0565b5b60008181548110611033576110326125a1565b5b9060005260206000209060080201600101543414611086576040517f08c379a000000000000000000000000000000000000000000000000000000000815260040161107d90612b4b565b60405180910390fd5b6000818154811061109a576110996125a1565b5b9060005260206000209060080201600101548411156110ee576040517f08c379a00000000000000000000000000000000000000000000000000000000081526004016110e590612bdd565b60405180910390fd5b6110f6612113565b33816000019073ffffffffffffffffffffffffffffffffffffffff16908173ffffffffffffffffffffffffffffffffffffffff16815250508481602001818152505080600160008673ffffffffffffffffffffffffffffffffffffffff1673ffffffffffffffffffffffffffffffffffffffff16815260200190815260200160002060008201518160000160006101000a81548173ffffffffffffffffffffffffffffffffffffffff021916908373ffffffffffffffffffffffffffffffffffffffff160217905550602082015181600101559050507f58e197b152e498d9238aeed8e784f21830ff8175a7dc88e238ed5442188836e733866040516111fd929190612303565b60405180910390a15050505050565b60606000808054905067ffffffffffffffff81111561122e5761122d612bfd565b5b60405190808252806020026020018201604052801561126757816020015b611254612143565b81526020019060019003908161124c5790505b50905060005b600080549050811015611428576000818154811061128e5761128d6125a1565b5b9060005260206000209060080201604051806101200160405290816000820160009054906101000a900473ffffffffffffffffffffffffffffffffffffffff1673ffffffffffffffffffffffffffffffffffffffff1673ffffffffffffffffffffffffffffffffffffffff168152602001600182015481526020016002820154815260200160038201548152602001600482015481526020016005820160009054906101000a900473ffffffffffffffffffffffffffffffffffffffff1673ffffffffffffffffffffffffffffffffffffffff1673ffffffffffffffffffffffffffffffffffffffff168152602001600682015481526020016007820160009054906101000a900473ffffffffffffffffffffffffffffffffffffffff1673ffffffffffffffffffffffffffffffffffffffff1673ffffffffffffffffffffffffffffffffffffffff1681526020016007820160149054906101000a900460ff16151515158152505082828151811061140a576114096125a1565b5b60200260200101819052508080611420906125ff565b91505061126d565b508091505090565b6000806000905060005b6000805490508110156114da578373ffffffffffffffffffffffffffffffffffffffff1660008281548110611472576114716125a1565b5b906000526020600020906008020160000160009054906101000a900473ffffffffffffffffffffffffffffffffffffffff1673ffffffffffffffffffffffffffffffffffffffff16036114c757600191508092505b80806114d2906125ff565b91505061143a565b506001151581151514611522576040517f08c379a0000000000000000000000000000000000000000000000000000000008152600401611519906126a4565b60405180910390fd5b60008281548110611536576115356125a1565b5b9060005260206000209060080201600201544211611589576040517f08c379a000000000000000000000000000000000000000000000000000000000815260040161158090612c9e565b60405180910390fd5b60001515600083815481106115a1576115a06125a1565b5b906000526020600020906008020160070160149054906101000a900460ff16151514611602576040517f08c379a00000000000000000000000000000000000000000000000000000000081526004016115f9906127fc565b60405180910390fd5b60008281548110611616576116156125a1565b5b906000526020600020906008020160070160009054906101000a900473ffffffffffffffffffffffffffffffffffffffff1673ffffffffffffffffffffffffffffffffffffffff163373ffffffffffffffffffffffffffffffffffffffff16146116b5576040517f08c379a00000000000000000000000000000000000000000000000000000000081526004016116ac90612d30565b60405180910390fd5b6001600083815481106116cb576116ca6125a1565b5b906000526020600020906008020160070160146101000a81548160ff02191690831515021790555060008281548110611707576117066125a1565b5b906000526020600020906008020160070160009054906101000a900473ffffffffffffffffffffffffffffffffffffffff1673ffffffffffffffffffffffffffffffffffffffff166108fc60008481548110611766576117656125a1565b5b9060005260206000209060080201600101549081150290604051600060405180830381858888f193505050501580156117a3573d6000803e3d6000fd5b507f8b72fb57b777f3414957c5d1934d37f7c3a7713f8f367c74bfa8ea42a25801ba33600084815481106117da576117d96125a1565b5b9060005260206000209060080201600101546040516117fa929190612303565b60405180910390a1505050565b6000806000905060005b6000805490508110156118b1578373ffffffffffffffffffffffffffffffffffffffff1660008281548110611849576118486125a1565b5b906000526020600020906008020160000160009054906101000a900473ffffffffffffffffffffffffffffffffffffffff1673ffffffffffffffffffffffffffffffffffffffff160361189e57600191508092505b80806118a9906125ff565b915050611811565b5060011515811515146118f9576040517f08c379a00000000000000000000000000000000000000000000000000000000081526004016118f0906126a4565b60405180910390fd5b600073ffffffffffffffffffffffffffffffffffffffff1660008381548110611925576119246125a1565b5b906000526020600020906008020160070160009054906101000a900473ffffffffffffffffffffffffffffffffffffffff1673ffffffffffffffffffffffffffffffffffffffff16146119ad576040517f08c379a00000000000000000000000000000000000000000000000000000000081526004016119a490612dc2565b60405180910390fd5b42600083815481106119c2576119c16125a1565b5b90600052602060002090600802016002015411611a14576040517f08c379a0000000000000000000000000000000000000000000000000000000008152600401611a0b90612e2e565b60405180910390fd5b8273ffffffffffffffffffffffffffffffffffffffff163373ffffffffffffffffffffffffffffffffffffffff1603611a82576040517f08c379a0000000000000000000000000000000000000000000000000000000008152600401611a7990612ec0565b60405180910390fd5b60008281548110611a9657611a956125a1565b5b9060005260206000209060080201600101543414611ae9576040517f08c379a0000000000000000000000000000000000000000000000000000000008152600401611ae090612b4b565b60405180910390fd5b600073ffffffffffffffffffffffffffffffffffffffff1660008381548110611b1557611b146125a1565b5b906000526020600020906008020160050160009054906101000a900473ffffffffffffffffffffffffffffffffffffffff1673ffffffffffffffffffffffffffffffffffffffff1603611b9d576040517f08c379a0000000000000000000000000000000000000000000000000000000008152600401611b9490612f2c565b60405180910390fd5b3360008381548110611bb257611bb16125a1565b5b906000526020600020906008020160070160006101000a81548173ffffffffffffffffffffffffffffffffffffffff021916908373ffffffffffffffffffffffffffffffffffffffff16021790555060008281548110611c1557611c146125a1565b5b906000526020600020906008020160000160009054906101000a900473ffffffffffffffffffffffffffffffffffffffff1673ffffffffffffffffffffffffffffffffffffffff166108fc60008481548110611c7457611c736125a1565b5b9060005260206000209060080201600101549081150290604051600060405180830381858888f19350505050158015611cb1573d6000803e3d6000fd5b507f726d5f1a838fe31748f737fa3ae5539ccff95952adfc593a1299532b643ff7a83360008481548110611ce857611ce76125a1565b5b906000526020600020906008020160010154604051611d08929190612303565b60405180910390a1505050565b60008311611d58576040517f08c379a0000000000000000000000000000000000000000000000000000000008152600401611d4f90612fbe565b60405180910390fd5b428211611d9a576040517f08c379a0000000000000000000000000000000000000000000000000000000008152600401611d919061302a565b60405180910390fd5b60008111611ddd576040517f08c379a0000000000000000000000000000000000000000000000000000000008152600401611dd4906130bc565b60405180910390fd5b6000805b600080549050811015611e7e573373ffffffffffffffffffffffffffffffffffffffff1660008281548110611e1957611e186125a1565b5b906000526020600020906008020160000160009054906101000a900473ffffffffffffffffffffffffffffffffffffffff1673ffffffffffffffffffffffffffffffffffffffff1603611e6b57600191505b8080611e76906125ff565b915050611de1565b506000151581151514611ec6576040517f08c379a0000000000000000000000000000000000000000000000000000000008152600401611ebd90613128565b60405180910390fd5b611ece612143565b33816000019073ffffffffffffffffffffffffffffffffffffffff16908173ffffffffffffffffffffffffffffffffffffffff16815250508481602001818152505042816060018181525050838160400181815250508281608001818152505060008161010001901515908115158152505060008160a0019073ffffffffffffffffffffffffffffffffffffffff16908173ffffffffffffffffffffffffffffffffffffffff1681525050600081908060018154018082558091505060019003906000526020600020906008020160009091909190915060008201518160000160006101000a81548173ffffffffffffffffffffffffffffffffffffffff021916908373ffffffffffffffffffffffffffffffffffffffff1602179055506020820151816001015560408201518160020155606082015181600301556080820151816004015560a08201518160050160006101000a81548173ffffffffffffffffffffffffffffffffffffffff021916908373ffffffffffffffffffffffffffffffffffffffff16021790555060c0820151816006015560e08201518160070160006101000a81548173ffffffffffffffffffffffffffffffffffffffff021916908373ffffffffffffffffffffffffffffffffffffffff1602179055506101008201518160070160146101000a81548160ff02191690831515021790555050507f610bc0bc04a094d5d3333c321ae182f74cd9cb6a07c751d652c5f4905851faa6338686866040516121049493929190613148565b60405180910390a15050505050565b6040518060400160405280600073ffffffffffffffffffffffffffffffffffffffff168152602001600081525090565b604051806101200160405280600073ffffffffffffffffffffffffffffffffffffffff16815260200160008152602001600081526020016000815260200160008152602001600073ffffffffffffffffffffffffffffffffffffffff16815260200160008152602001600073ffffffffffffffffffffffffffffffffffffffff1681526020016000151581525090565b600080fd5b600073ffffffffffffffffffffffffffffffffffffffff82169050919050565b6000612203826121d8565b9050919050565b612213816121f8565b811461221e57600080fd5b50565b6000813590506122308161220a565b92915050565b60006020828403121561224c5761224b6121d3565b5b600061225a84828501612221565b91505092915050565b60008115159050919050565b61227881612263565b811461228357600080fd5b50565b6000813590506122958161226f565b92915050565b600080604083850312156122b2576122b16121d3565b5b60006122c085828601612221565b92505060206122d185828601612286565b9150509250929050565b6122e4816121f8565b82525050565b6000819050919050565b6122fd816122ea565b82525050565b600060408201905061231860008301856122db565b61232560208301846122f4565b9392505050565b612335816122ea565b811461234057600080fd5b50565b6000813590506123528161232c565b92915050565b6000806040838503121561236f5761236e6121d3565b5b600061237d85828601612343565b925050602061238e85828601612221565b9150509250929050565b600081519050919050565b600082825260208201905092915050565b6000819050602082019050919050565b6123cd816121f8565b82525050565b6123dc816122ea565b82525050565b6123eb81612263565b82525050565b6101208201600082015161240860008501826123c4565b50602082015161241b60208501826123d3565b50604082015161242e60408501826123d3565b50606082015161244160608501826123d3565b50608082015161245460808501826123d3565b5060a082015161246760a08501826123c4565b5060c082015161247a60c08501826123d3565b5060e082015161248d60e08501826123c4565b506101008201516124a26101008501826123e2565b50505050565b60006124b483836123f1565b6101208301905092915050565b6000602082019050919050565b60006124d982612398565b6124e381856123a3565b93506124ee836123b4565b8060005b8381101561251f57815161250688826124a8565b9750612511836124c1565b9250506001810190506124f2565b5085935050505092915050565b6000602082019050818103600083015261254681846124ce565b905092915050565b600080600060608486031215612567576125666121d3565b5b600061257586828701612343565b935050602061258686828701612343565b925050604061259786828701612343565b9150509250925092565b7f4e487b7100000000000000000000000000000000000000000000000000000000600052603260045260246000fd5b7f4e487b7100000000000000000000000000000000000000000000000000000000600052601160045260246000fd5b600061260a826122ea565b91507fffffffffffffffffffffffffffffffffffffffffffffffffffffffffffffffff820361263c5761263b6125d0565b5b600182019050919050565b600082825260208201905092915050565b7f54686520626f72726f776572206d75737420686176652061206c6f616e000000600082015250565b600061268e601d83612647565b915061269982612658565b602082019050919050565b600060208201905081810360008301526126bd81612681565b9050919050565b60006126cf826122ea565b91506126da836122ea565b92508282019050808211156126f2576126f16125d0565b5b92915050565b7f596f75206d757374207061792074686520726967687420616d6f756e742c206960008201527f6e74657265737420616e6420676172616e746f7220696e7465726573742e205460208201527f686520746f74616c20616d6f756e74206973203a200000000000000000000000604082015250565b600061277a605583612647565b9150612785826126f8565b606082019050919050565b600060208201905081810360008301526127a98161276d565b9050919050565b7f546865206c6f616e20697320616c726561647920726570616964000000000000600082015250565b60006127e6601a83612647565b91506127f1826127b0565b602082019050919050565b60006020820190508181036000830152612815816127d9565b9050919050565b7f596f752063616e27742072657061792061206c6f616e2074686174206973206f60008201527f7665726475650000000000000000000000000000000000000000000000000000602082015250565b6000612878602683612647565b91506128838261281c565b604082019050919050565b600060208201905081810360008301526128a78161286b565b9050919050565b7f596f75206d7573742062652074686520626f72726f77657220746f207265706160008201527f7920746865206c6f616e00000000000000000000000000000000000000000000602082015250565b600061290a602a83612647565b9150612915826128ae565b604082019050919050565b60006020820190508181036000830152612939816128fd565b9050919050565b7f596f75206d75737420686176652061206c6f616e20746f2076616c696461746560008201527f206120676172616e747900000000000000000000000000000000000000000000602082015250565b600061299c602a83612647565b91506129a782612940565b604082019050919050565b600060208201905081810360008301526129cb8161298f565b9050919050565b7f596f75206d7573742062652074686520626f72726f7765720000000000000000600082015250565b6000612a08601883612647565b9150612a13826129d2565b602082019050919050565b60006020820190508181036000830152612a37816129fb565b9050919050565b7f596f752063616e27742062652074686520626f72726f77657220616e6420746860008201527f6520676172616e746f7200000000000000000000000000000000000000000000602082015250565b6000612a9a602a83612647565b9150612aa582612a3e565b604082019050919050565b60006020820190508181036000830152612ac981612a8d565b9050919050565b7f4e487b7100000000000000000000000000000000000000000000000000000000600052600160045260246000fd5b7f596f75206d757374207061792074686520726967687420616d6f756e74000000600082015250565b6000612b35601d83612647565b9150612b4082612aff565b602082019050919050565b60006020820190508181036000830152612b6481612b28565b9050919050565b7f54686520676172616e746f7220696e746572657374206d757374206265206c6f60008201527f776572207468616e2074686520616d6f756e74206f6620746865206c6f616e00602082015250565b6000612bc7603f83612647565b9150612bd282612b6b565b604082019050919050565b60006020820190508181036000830152612bf681612bba565b9050919050565b7f4e487b7100000000000000000000000000000000000000000000000000000000600052604160045260246000fd5b7f596f752063616e277420636c61696d2061206c6f616e2074686174206973206e60008201527f6f74206f76657264756500000000000000000000000000000000000000000000602082015250565b6000612c88602a83612647565b9150612c9382612c2c565b604082019050919050565b60006020820190508181036000830152612cb781612c7b565b9050919050565b7f596f75206d75737420626520746865206c656e64657220746f20636c61696d2060008201527f746865206c6f616e000000000000000000000000000000000000000000000000602082015250565b6000612d1a602883612647565b9150612d2582612cbe565b604082019050919050565b60006020820190508181036000830152612d4981612d0d565b9050919050565b7f546865206c6f616e206d757374206e6f7420626520616c72656164792066756e60008201527f6465640000000000000000000000000000000000000000000000000000000000602082015250565b6000612dac602383612647565b9150612db782612d50565b604082019050919050565b60006020820190508181036000830152612ddb81612d9f565b9050919050565b7f546865206c6f616e206d757374206e6f74206265206578706972656400000000600082015250565b6000612e18601c83612647565b9150612e2382612de2565b602082019050919050565b60006020820190508181036000830152612e4781612e0b565b9050919050565b7f596f752063616e27742062652074686520626f72726f77657220616e6420746860008201527f65206c656e646572000000000000000000000000000000000000000000000000602082015250565b6000612eaa602883612647565b9150612eb582612e4e565b604082019050919050565b60006020820190508181036000830152612ed981612e9d565b9050919050565b7f546865206c6f616e206d7573742068617665206120676172616e746f72000000600082015250565b6000612f16601d83612647565b9150612f2182612ee0565b602082019050919050565b60006020820190508181036000830152612f4581612f09565b9050919050565b7f596f75206d7573742072657175657374206120706f73697469766520616d6f7560008201527f6e74000000000000000000000000000000000000000000000000000000000000602082015250565b6000612fa8602283612647565b9150612fb382612f4c565b604082019050919050565b60006020820190508181036000830152612fd781612f9b565b9050919050565b7f596f75206d757374207265717565737420612066757475726520646174650000600082015250565b6000613014601e83612647565b915061301f82612fde565b602082019050919050565b6000602082019050818103600083015261304381613007565b9050919050565b7f596f75206d7573742072657175657374206120706f73697469766520696e746560008201527f7265737400000000000000000000000000000000000000000000000000000000602082015250565b60006130a6602483612647565b91506130b18261304a565b604082019050919050565b600060208201905081810360008301526130d581613099565b9050919050565b7f596f7520616c726561647920686176652061206c6f616e000000000000000000600082015250565b6000613112601783612647565b915061311d826130dc565b602082019050919050565b6000602082019050818103600083015261314181613105565b9050919050565b600060808201905061315d60008301876122db565b61316a60208301866122f4565b61317760408301856122f4565b61318460608301846122f4565b9594505050505056fea264697066735822122047231dc63f23338c0b14dfa54be8c95e14a2575a979606fa1b79c62d6fe9c46064736f6c63430008110033",
  "immutableReferences": {},
  "source": "//SPDX-License-Identifier: UNLICENSED\n// We're going to build a loan contract for P2P lending\n//we add an identifier to the contract\npragma solidity 0.8.17;\n\ncontract Loan {\n    //We build the different structures we need\n    struct Garantor {\n        address garantorAddress;\n        uint256 garantorAmount;\n    }\n\n    struct LoanStruct {\n        address borrower;\n        uint256 amount;\n        uint256 end; //in timestamp\n        uint256 start; //in timestamp\n        uint256 interest; //in wei\n        address garantor;\n        uint256 garantorInterest;\n        address lender;\n        bool repaid;\n    }\n\n    //We create a list to store the loans\n    LoanStruct[] private loans;\n\n    //We create a mapping on borrower address to store the garantors\n    mapping(address => Garantor) private garantors;\n\n    //We store the admin address\n    address private admin;\n\n    //We create useful events\n    event FoundGarantor(address garantor, uint256 garantorInterest);\n\n    event LoanRequest(address borrower, uint256 amount, uint256 end, uint256 interest);\n\n    event GarantorRefund(address garantor, uint256 amount);\n\n    event ValidateGarantor(address garantor, uint256 amount);\n\n    event LoanFunded(address lender, uint256 amount);\n\n    event LoanRepay(address borrower, uint256 amount);\n\n    event GarantyClaimed(address garantor, uint256 amount);\n\n    //Constructor\n    constructor() {\n        admin = msg.sender;\n    }\n\n    //function to request a loan\n    function requestLoan(uint256 _amount, uint256 _end, uint256 _interest) public {\n        //We check that the values are correct\n        require(_amount > 0, \"You must request a positive amount\");\n        require(_end > block.timestamp, \"You must request a future date\");\n        require(_interest > 0, \"You must request a positive interest\");\n\n        //We check that the borrower doesn't have a loan\n        bool inArray = false;\n        for (uint256 i = 0; i < loans.length; i++) {\n            if (loans[i].borrower == msg.sender) {\n                inArray = true;\n            }\n        }\n        require(inArray == false, \"You already have a loan\");\n\n        //We create a new loan\n        LoanStruct memory newLoan;\n        newLoan.borrower = msg.sender;\n        newLoan.amount = _amount;\n        newLoan.start = block.timestamp;\n        newLoan.end = _end;\n        newLoan.interest = _interest;\n        newLoan.repaid = false;\n        newLoan.garantor = address(0);\n\n        //We add the loan to the array\n        loans.push(newLoan);\n\n        //We emit the event\n        emit LoanRequest(msg.sender, _amount, _end, _interest);\n    }\n\n    //function to provide a garanty\n    function provideGaranty(uint256 _garantyinterest, address _borrower) public payable {\n        //We check that the borrower is not the garantor\n        require(msg.sender != _borrower, \"You can't be the borrower and the garantor\");\n\n        //We check that the borrower has a loan\n        bool inArray = false;\n        uint256 index;\n        for (uint256 i = 0; i < loans.length; i++) {\n            if (loans[i].borrower == _borrower) {\n                inArray = true;\n                index = i;\n            }\n        }\n        require(inArray == true, \"The borrower must have a loan\");\n\n        //We check if the loan garantor is not already found\n        assert(garantors[_borrower].garantorAddress == address(0));\n\n        //We check if the amount of the garanty is correct\n        require(\n            msg.value == loans[index].amount,\n            //We log the amount of the loan$\n            \"You must pay the right amount\"\n        );\n\n        //We check that the garantor interest is not higher than the amount of the loan\n        require(\n            _garantyinterest <= loans[index].amount,\n            \"The garantor interest must be lower than the amount of the loan\"\n        );\n\n        //We store the garantor\n        Garantor memory newGarantor;\n        newGarantor.garantorAddress = msg.sender;\n        newGarantor.garantorAmount = _garantyinterest;\n        garantors[_borrower] = newGarantor;\n\n        //We emit the event\n        emit FoundGarantor(msg.sender, _garantyinterest);\n    }\n\n    //function to get the garantor information\n    function getGarantor(address _borrower) public view returns (address, uint256) {\n        //We check that the caller is the borrower\n        require(msg.sender == _borrower, \"You must be the borrower\");\n        //We check that the borrower has a loan\n        bool inArray = false;\n        for (uint256 i = 0; i < loans.length; i++) {\n            if (loans[i].borrower == _borrower) {\n                inArray = true;\n            }\n        }\n        require(inArray == true, \"The borrower must have a loan\");\n\n        return (garantors[_borrower].garantorAddress, garantors[_borrower].garantorAmount);\n    }\n\n    //function to validate a garanty\n    function validateGaranty(address _garantor, bool accept) public {\n        //We check that the caller is the borrower\n        address _borrower = msg.sender;\n\n        //We check that the borrower has a loan\n        bool inArray = false;\n        uint256 index;\n        for (uint256 i = 0; i < loans.length; i++) {\n            if (loans[i].borrower == _borrower) {\n                inArray = true;\n                index = i;\n            }\n        }\n        require(inArray == true, \"You must have a loan to validate a garanty\");\n\n        //We check that the garantor exists\n        garantors[_borrower].garantorAddress == _garantor;\n\n        if (accept == true) {\n            //We add the garantor interest to the loan\n            loans[index].garantorInterest = garantors[_borrower].garantorAmount;\n            loans[index].garantor = _garantor;\n            //We emit the event\n            emit ValidateGarantor(_garantor, loans[index].garantorInterest);\n        } else {\n            //We transfer the money back to the garantor\n            payable(_garantor).transfer(garantors[_borrower].garantorAmount);\n            //We emit the event\n            emit GarantorRefund(_garantor, garantors[_borrower].garantorAmount);\n            //We delete the garantor\n            garantors[_borrower] = Garantor(address(0), 0);\n        }\n    }\n\n    //function to fund a loan\n    function fundLoan(address _borrower) public payable {\n        //We find the loan\n        uint256 index;\n        bool inArray = false;\n        for (uint256 i = 0; i < loans.length; i++) {\n            if (loans[i].borrower == _borrower) {\n                inArray = true;\n                index = i;\n            }\n        }\n        require(inArray == true, \"The borrower must have a loan\");\n\n        //We check that the loan is not already funded\n        require(loans[index].lender == address(0), \"The loan must not be already funded\");\n\n        //We check that the loan is not expired\n        require(loans[index].end > block.timestamp, \"The loan must not be expired\");\n\n        //We check that the borrower is not the lender\n        require(msg.sender != _borrower, \"You can't be the borrower and the lender\");\n\n        //We check that the lender paid the right amount\n        require(msg.value == loans[index].amount, \"You must pay the right amount\");\n\n        //We check that the loan has a garantor\n        require(loans[index].garantor != address(0), \"The loan must have a garantor\");\n\n        //We fund the loan\n        loans[index].lender = msg.sender;\n        //We transfer the money to the borrower\n        payable(loans[index].borrower).transfer(loans[index].amount);\n        //We emit the event\n        emit LoanFunded(msg.sender, loans[index].amount);\n    }\n\n    //function to repay a loan\n    function repayLoan(address _borrower) public payable {\n        //We find the loan\n        uint256 index;\n        bool inArray = false;\n        for (uint256 i = 0; i < loans.length; i++) {\n            if (loans[i].borrower == _borrower) {\n                inArray = true;\n                index = i;\n            }\n        }\n        require(inArray == true, \"The borrower must have a loan\");\n\n        uint256 total_amount = loans[index].amount + loans[index].interest + loans[index].garantorInterest;\n\n        //We check that the borrower paid the right amount\n        require(\n            msg.value == total_amount,\n            \"You must pay the right amount, interest and garantor interest. The total amount is : \"\n        );\n\n        //We check that the loan is not already repaid\n        require(loans[index].repaid == false, \"The loan is already repaid\");\n\n        //We check that the loan is not overdue\n        require(block.timestamp < loans[index].end, \"You can't repay a loan that is overdue\");\n\n        //We check that the borrower is the caller\n        require(msg.sender == loans[index].borrower, \"You must be the borrower to repay the loan\");\n        //We repay the loan\n        loans[index].repaid = true;\n        //We transfer the money to the lender\n        payable(loans[index].lender).transfer(loans[index].amount);\n        //We transfer the money to the garantor for the interest\n        payable(loans[index].garantor).transfer(loans[index].garantorInterest);\n        //We transfer the money to the garantor for the garanty\n        payable(loans[index].garantor).transfer(loans[index].amount);\n        //We emit the event\n        emit LoanRepay(msg.sender, loans[index].amount);\n    }\n\n    //function to claim money from a loan overdue\n    function claimGaranty(address _borrower) public payable {\n        //We find the loan\n        uint256 index;\n        bool inArray = false;\n        for (uint256 i = 0; i < loans.length; i++) {\n            if (loans[i].borrower == _borrower) {\n                inArray = true;\n                index = i;\n            }\n        }\n        require(inArray == true, \"The borrower must have a loan\");\n\n        //We check that the loan is overdue\n        require(block.timestamp > loans[index].end, \"You can't claim a loan that is not overdue\");\n\n        //We check that the loan is not repaid\n        require(loans[index].repaid == false, \"The loan is already repaid\");\n\n        //We check that the caller is the lender\n        require(msg.sender == loans[index].lender, \"You must be the lender to claim the loan\");\n\n        //We claim the loan\n        loans[index].repaid = true;\n        //We transfer the money to the lender\n        payable(loans[index].lender).transfer(loans[index].amount);\n        //We emit the event\n        emit GarantyClaimed(msg.sender, loans[index].amount);\n    }\n\n    //function to view all the loans\n    function viewLoans() public view returns (LoanStruct[] memory) {\n        LoanStruct[] memory allLoans = new LoanStruct[](loans.length);\n        for (uint256 i = 0; i < loans.length; i++) {\n            allLoans[i] = loans[i];\n        }\n        return allLoans;\n    }\n}\n",
  "sourcePath": "C:\\Users\\TR155VY\\Documents\\Keshav\\Programming\\Blockchain\\Loan Payment\\contracts\\loan.sol",
  "compiler": {
    "name": "solc",
    "version": "0.8.17+commit.8df45f5f.Emscripten.clang"
  },
  "schemaVersion": "3.4.12",
  "updatedAt": "2023-02-17T10:40:19.749Z",
  "networkType": "ethereum",
  "devdoc": {
    "kind": "dev",
    "methods": {},
    "version": 1
  },
  "userdoc": {
    "kind": "user",
    "methods": {},
    "version": 1
  }
}